:100000000C9434000C9451000C9418010C942701AA
:100010000C9451000C9451000C9451000C9451001C
:100020000C9451000C9451000C9451000C9451000C
:100030000C9451000C9451000C9451000C945100FC
:100040000C9451000C9451000C9451000C945100EC
:100050000C9451000C9451000C9451000C945100DC
:100060000C9451000C94510011241FBECFEFD4E02A
:10007000DEBFCDBF11E0A0E0B1E0ECEDF4E002C0E6
:1000800005900D92AE34B107D9F721E0AEE4B1E0AE
:1000900001C01D92A035B207E1F70E9436010C9411
:1000A0006C020C940000CF93DF93CDB7DEB7279797
:1000B0000FB6F894DEBF0FBECDBF29833A834B83C2
:1000C0005C836D837E838F83E981FA81208181E067
:1000D00090E00F8002C0880F991F0A94E2F78227F0
:1000E000808327960FB6F894DEBF0FBECDBFDF9199
:1000F000CF910895CF93DF93CDB7DEB727970FB693
:10010000F894DEBF0FBECDBF29833A834B835C8357
:100110006D837E838F83E981FA81208181E090E085
:100120000F8002C0880F991F0A94E2F7822B808308
:1001300027960FB6F894DEBF0FBECDBFDF91CF91EB
:100140000895CF93DF93CDB7DEB727970FB6F89416
:10015000DEBF0FBECDBF29833A834B835C836D83A3
:100160007E838F83E981FA81208181E090E00F8096
:1001700002C0880F991F0A94E2F78095822380833A
:1001800027960FB6F894DEBF0FBECDBFDF91CF919B
:100190000895CF93DF93CDB7DEB727970FB6F894C6
:1001A000DEBF0FBECDBF29833A834B835C836D8353
:1001B0007E838F83EB81FC81208181E090E00F8042
:1001C00002C0880F991F0A94E2F7822B808327963A
:1001D0000FB6F894DEBF0FBECDBFDF91CF9108956B
:1001E000CF93DF93CDB7DEB727970FB6F894DEBF76
:1001F0000FBECDBF29833A834B835C836D837E839F
:100200008F83EB81FC81208181E090E00F8002C030
:10021000880F991F0A94E2F780958223808327969E
:100220000FB6F894DEBF0FBECDBFDF91CF9108951A
:100230001F920F920FB60F9211248F9381E080933B
:100240004F018F910F900FBE0F901F9018951F9226
:100250000F920FB60F9211248F9381E080934E017D
:100260008F910F900FBE0F901F901895CF93DF9333
:10027000CDB7DEB7CD54D1090FB6F894DEBF0FBEAF
:10028000CDBF87E0E0E0F1E0DE01119601900D9234
:100290008A95E1F787E0E7E0F1E0DE01189601904A
:1002A0000D928A95E1F787E0EEE0F1E0DE011F961E
:1002B00001900D928A95E1F787E0E5E1F1E0DE013A
:1002C000569601900D928A95E1F787E0ECE1F1E016
:1002D000DE015D9601900D928A95E1F787E0E3E2F9
:1002E000F1E0DE01949601900D928A95E1F787E0A6
:1002F000EAE2F1E0DE019B9601900D928A95E1F72A
:1003000087E0E1E3F1E0DE01D29601900D928A955B
:10031000E1F787E0E8E3F1E0DE01D99601900D9284
:100320008A95E1F787E0EFE3F1E0DE01A05CBF4FE3
:1003300001900D928A95E1F787E0E6E4F1E0DE01B5
:10034000A95BBF4F01900D928A95E1F729813A810F
:100350004B815C816D817E818F810E94C9002885DF
:1003600039854A855B856C857D858E850E94C900AF
:100370002F85388949895A896B897C898D890E94A2
:10038000C9002E893F89488D598D6A8D7B8D8C8D52
:100390000E94C90028962FAD289729963FAD29972E
:1003A0002A964FAD2A972B965FAD2B972C966FAD63
:1003B0002C972D967FAD2D972E968FAD2E970E9460
:1003C000C90029AD3AAD4BAD5CAD6DAD7EAD8FAD25
:1003D0000E94C9002AA93BA94CA95DA96EA97FA9C1
:1003E00088AD0E94C9002BA53CA54DA55EA56FA5B3
:1003F00078A989A90E94C90021962FAD219722963C
:100400003FAD229723964FAD239724965FAD249757
:1004100025966FAD259726967FAD269727968FADAB
:1004200027970E94F0002D8D3E8D4F8D58A169A118
:100430007AA18BA10E94F0002CA13DA14EA15FA149
:1004400068A579A58AA50E94F00029813A814B818F
:100450005C816D817E818F810E947A00288539853B
:100460004A855B856C857D858E850E947A002AA9E8
:100470003BA94CA95DA96EA97FA988AD0E947A000D
:1004800078942F85388949895A896B897C898D8927
:100490000E947A002FE38DE093E02150804090404D
:1004A000E1F700C000002F85388949895A896B8996
:1004B0007C898D890E94A10080914F018130E1F7F4
:1004C00010924F01288539854A855B856C857D852D
:0C04D0008E850E945300F0CFF894FFCFFF
:1004DC002B002A002900062B002A002900072B00DC
:1004EC002A002900042B002A0029000525002400DD
:1004FC002300002B002A00290003250024002300E0
:10050C0001250024002300022500240023000325DC
:0E051C00002400230004250024002300050015
:00000001FF
