S013000050726F6772616D5F6E52462E73726563D4
S11300000C9434000C943E000C943E000C943E007E
S11300100C943E000C943E000C943E000C943E0064
S11300200C943E000C943E000C943E000C943E0054
S11300300C943E000C943E000C943E000C943E0044
S11300400C943E000C943E000C943E000C943E0034
S11300500C943E000C943E000C943E000C943E0024
S11300600C943E000C943E0011241FBECFEFD4E04C
S1130070DEBFCDBF0E9440000C944F000C940000E2
S1130080579A5F9A2FE986E891E02150804090408A
S1130090E1F700C000008BB180588BB9F3CFF8941E
S10500A0FFCF8C
S9030000FC
