:100000000C9434000C9451000C9418010C942701AA
:100010000C9451000C9451000C9451000C9451001C
:100020000C9451000C9451000C9451000C9451000C
:100030000C9451000C9451000C9451000C945100FC
:100040000C9451000C9451000C9451000C945100EC
:100050000C9451000C9451000C9451000C945100DC
:100060000C9451000C94510011241FBECFEFD4E02A
:10007000DEBFCDBF11E0A0E0B1E0EAE5FFE002C0E5
:1000800005900D92AC37B107D9F721E0ACE7B1E0AC
:1000900001C01D92AF38B207E1F70E9437010C94FE
:1000A000AB070C940000CF93DF93CDB7DEB7279753
:1000B0000FB6F894DEBF0FBECDBF29833A834B83C2
:1000C0005C836D837E838F83E981FA81208181E067
:1000D00090E00F8002C0880F991F0A94E2F78227F0
:1000E000808327960FB6F894DEBF0FBECDBFDF9199
:1000F000CF910895CF93DF93CDB7DEB727970FB693
:10010000F894DEBF0FBECDBF29833A834B835C8357
:100110006D837E838F83E981FA81208181E090E085
:100120000F8002C0880F991F0A94E2F7822B808308
:1001300027960FB6F894DEBF0FBECDBFDF91CF91EB
:100140000895CF93DF93CDB7DEB727970FB6F89416
:10015000DEBF0FBECDBF29833A834B835C836D83A3
:100160007E838F83E981FA81208181E090E00F8096
:1001700002C0880F991F0A94E2F78095822380833A
:1001800027960FB6F894DEBF0FBECDBFDF91CF919B
:100190000895CF93DF93CDB7DEB727970FB6F894C6
:1001A000DEBF0FBECDBF29833A834B835C836D8353
:1001B0007E838F83EB81FC81208181E090E00F8042
:1001C00002C0880F991F0A94E2F7822B808327963A
:1001D0000FB6F894DEBF0FBECDBFDF91CF9108956B
:1001E000CF93DF93CDB7DEB727970FB6F894DEBF76
:1001F0000FBECDBF29833A834B835C836D837E839F
:100200008F83EB81FC81208181E090E00F8002C030
:10021000880F991F0A94E2F780958223808327969E
:100220000FB6F894DEBF0FBECDBFDF91CF9108951A
:100230001F920F920FB60F9211248F9381E080933B
:100240007D018F910F900FBE0F901F9018951F92F8
:100250000F920FB60F9211248F9385B181E0809396
:100260007C018F910F900FBE0F901F901895CF9328
:10027000DF93CDB7DEB7C555D1090FB6F894DEBF11
:100280000FBECDBF87E0E0E0F1E0DE011196019006
:100290000D928A95E1F787E0E7E0F1E0DE0118963C
:1002A00001900D928A95E1F787E0EEE0F1E0DE0142
:1002B0001F9601900D928A95E1F787E0E5E1F1E064
:1002C000DE01569601900D928A95E1F787E0ECE108
:1002D000F1E0DE015D9601900D928A95E1F787E0ED
:1002E000E3E2F1E0DE01949601900D928A95E1F748
:1002F00087E0EAE2F1E0DE019B9601900D928A959B
:10030000E1F787E0E1E3F1E0DE01D29601900D92A2
:100310008A95E1F787E0E8E3F1E0DE01D996019004
:100320000D928A95E1F787E0EFE3F1E0DE01A05C52
:10033000BF4F01900D928A95E1F787E0E6E4F1E086
:10034000DE01A95BBF4F01900D928A95E1F72981EB
:100350003A814B815C816D817E818F810E94C900D1
:10036000288539854A855B856C857D858E850E94CB
:10037000C9002F85388949895A896B897C898D897B
:100380000E94C9002E893F89488D598D6A8D7B8DC9
:100390008C8D0E94C90028962FAD289729963FADD5
:1003A00029972A964FAD2A972B965FAD2B972C96BF
:1003B0006FAD2C972D967FAD2D972E968FAD2E97E6
:1003C0000E94C90029AD3AAD4BAD5CAD6DAD7EADBF
:1003D0008FAD0E94C9002AA93BA94CA95DA96EA9AD
:1003E0007FA988AD0E94C9002BA53CA54DA55EA59F
:1003F0006FA578A989A90E94C90021962FAD2197E0
:1004000022963FAD229723964FAD239724965FAD5A
:10041000249725966FAD259726967FAD269727962C
:100420008FAD27970E94F0002D8D3E8D4F8D58A1E6
:1004300069A17AA18BA10E94F0002CA13DA14EA13F
:100440005FA168A579A58AA50E94F00029813A815B
:100450004B815C816D817E818F810E947A0028852D
:1004600039854A855B856C857D858E850E947A00FD
:100470002AA93BA94CA95DA96EA97FA988AD0E94B4
:100480007A000E9463078DE491E00E947907E9E613
:10049000F0E080818C608083E99A7894ABA4BCA45E
:1004A000CDA4DEA4EFA4F8A809A92AA93BA94CA9C8
:1004B0005DA96EA97FA988AD0E9417066CE571E061
:1004C00080E00E94540580E691E00E9476050E943B
:1004D000B20487E0FE013F96DE01A25BBF4F0190B0
:1004E0000D928A95E1F72F962FAD2F9760963FAD2D
:1004F000609761964FAD619762965FAD6297639624
:100500006FAD639764967FAD649765968FAD659781
:100510000E947A002FE38DE093E0215080409040CC
:10052000E1F700C000002F962FAD2F9760963FADEA
:10053000609761964FAD619762965FAD62976396E3
:100540006FAD639764967FAD649765968FAD659741
:100550000E94A10029813A814B815C816D817E815D
:100560008F810E94A1008E010B5A1F4FE02EF12EA9
:1005700080917D01813049F510927D01F801108252
:100580008E2D9F2D0E94D80589EF90E00197F1F7FD
:1005900000C000000E94DE0529813A814B815C8108
:1005A0006D817E818F810E9453009FE3EDE0F3E037
:1005B0009150E040F040E1F700C00000F801808178
:1005C0008F5F80838A30E0F2D3CFF8011082D8CFDA
:1005D00090E0009769F020E030E0E9EFF0E031973B
:1005E000F1F700C000002F5F3F4F28173907A9F728
:1005F0000895EF92FF920F931F93E62EF12C009136
:1006000085011091860120918701309188014091E8
:10061000890150918A0160918B010E94C5061F914A
:100620000F91FF90EF900895CF93DF9300D0CDB757
:10063000DEB7806289836A832091850130918601CB
:1006400040918701509188016091890170918A01E0
:1006500080918B010E94A10062E0CE0101960E9470
:10066000F9022091850130918601409187015091D6
:1006700088016091890170918A0180918B010E94AB
:100680007A000F900F90DF91CF910895FF920F9312
:100690001F93CF93DF931F92CDB7DEB78B01F42E5C
:1006A0008062898320918501309186014091870184
:1006B000509188016091890170918A0180918B012C
:1006C0000E94A10061E0CE0101960E94F9026F2D07
:1006D000C8010E94F9022091850130918601409164
:1006E0008701509188016091890170918A01809100
:1006F0008B010E947A000F90DF91CF911F910F9193
:10070000FF900895EF92FF920F931F93CF93DF9383
:1007100000D0CDB7DEB78A83209185013091860164
:1007200040918701509188016091890170918A01FF
:1007300080918B010E94A10061E0CE0102960E948F
:10074000F902EE24E394F12C0091850110918601C9
:1007500020918701309188014091890150918A014F
:1007600060918B01CE0101960E94110720918501B5
:1007700030918601409187015091880160918901F3
:1007800070918A0180918B010E947A0089810F907B
:100790000F90DF91CF911F910F91FF90EF900895EF
:1007A000CF92DF92EF92FF920F931F93CF93DF933D
:1007B0001F92CDB7DEB789836B01E42E20918501AE
:1007C00030918601409187015091880160918901A3
:1007D00070918A0180918B010E94A10061E0CE019D
:1007E00001960E94F902F12C009185011091860179
:1007F00020918701309188014091890150918A01AF
:1008000060918B01C6010E941107209185013091F2
:100810008601409187015091880160918901709112
:100820008A0180918B010E947A000F90DF91CF9115
:100830001F910F91FF90EF90DF90CF90089580E08F
:100840000E9482030895682F80E00E941403089597
:10085000CF93C82F86E00E9482036C2F660F887F9B
:10086000682B86E00E941403CF910895CF93C82F80
:1008700086E00E948203682F677DC23011F46062B7
:1008800003C0C13009F4686086E00E941403CF9170
:10089000089587E00E9482030895682F87E00E94F0
:1008A00014030895CF93DF931F92CDB7DEB782EE86
:1008B0008983209185013091860140918701509173
:1008C00088016091890170918A0180918B010E9459
:1008D000A10061E0CE0101960E94F90220918501FC
:1008E0003091860140918701509188016091890182
:1008F00070918A0180918B010E947A000F90DF91A4
:10090000CF910895CF93DF931F92CDB7DEB781EEDD
:100910008983209185013091860140918701509112
:1009200088016091890170918A0180918B010E94F8
:10093000A10061E0CE0101960E94F902209185019B
:100940003091860140918701509188016091890121
:1009500070918A0180918B010E947A000F90DF9143
:10096000CF91089520917E0130917F0140918001C7
:100970005091810160918201709183018091840185
:100980000E94A1000E941F048E7F82600E942304A7
:1009900080E70E944D040E9452040E94820481E07C
:1009A0000E94E8020895CF93C82F0E941F04CC2311
:1009B00011F0886001C0877F0E942304CF910895C1
:1009C000CF93C82F0E941F04C13011F4846001C06E
:1009D0008B7F0E942304CF910895682F6F7785E065
:1009E0000E94140308956F73863008F085E08F5ECF
:1009F0000E9414030895CF93DF93D62FC82F86301B
:100A000008F0C5E082E00E948203D13051F421E079
:100A100030E002C0220F331FCA95E2F7682F622B25
:100A20000AC021E030E002C0220F331FCA95E2F76E
:100A30002095622F682382E00E941403DF91CF91FA
:100A40000895CF93DF93D62FC82F863008F0C5E0E6
:100A500081E00E948203D13051F421E030E002C0F5
:100A6000220F331FCA95E2F7682F622B0AC021E0DC
:100A700030E002C0220F331FCA95E2F72095622FA3
:100A8000682381E00E941403DF91CF91089586309E
:100A900008F085E0833008F483E08250682F6370AB
:100AA00083E00E9414030895CF93DF9300D01F9238
:100AB000CDB7DEB7823078F4FB0190819B839181C2
:100AC0009A839281998343E0BE016F5F7F4F865F77
:100AD0000E94460305C0FB016281865F0E941403E9
:100AE0000F900F900F90DF91CF9108950F931F9368
:100AF000CF93DF9300D01F92CDB7DEB78C0143E0D8
:100B0000BE016F5F7F4F8AE00E94D003ECE8F1E006
:100B1000898182838A8181838B818083F8018081AE
:100B20008B8381818A838281898343E0BE016F5FE9
:100B30007F4F8AE00E94460343E0BE016F5F7F4F14
:100B400080E10E9446030F900F900F90DF91CF91AC
:100B50001F910F9108950E94490480670E944D04DF
:100B60000895CF93C82F0E941F04C11102C0806452
:100B700001C08F7B0E942304CF910895CF93C82F8B
:100B80000E941F04C11102C0806201C08F7D0E94BB
:100B90002304CF910895CF93C82F0E941F04C11141
:100BA00002C0806101C08F7E0E942304CF9108950E
:100BB00041E0BC0180EA0E9446030895CF93209152
:100BC0007E0130917F0140918001509181016091BF
:100BD000820170918301809184010E947A0081E0FA
:100BE0000E94E80220917E0130917F0140918001B6
:100BF0005091810160918201709183018091840103
:100C00000E94A10084E60E94E8020E944904C82FC5
:100C100084E691E00E9479078C2F0E94880789E57D
:100C200091E00E947907C07369F3CF910895AF9264
:100C3000BF92CF92DF92EF92FF920F93CF93DF9309
:100C4000CDB7DEB72E970FB6F894DEBF0FBECDBF7F
:100C500029833A834B835C836D837E838F83A8864D
:100C6000B986CA86DB86EC86FD860E8787E0FE01A4
:100C70003196A5E8B1E001900D928A95E1F787E001
:100C8000FE013896AEE7B1E001900D928A95E1F74A
:100C90000E94B40620917E0130917F014091800135
:100CA0005091810160918201709183018091840152
:100CB0000E94A10020918501309186014091870119
:100CC000509188016091890170918A0180918B0116
:100CD0000E947A0085E00E94E80283E00E942804D6
:100CE00082E00E94360481E00E94D30480E00E94EA
:100CF000E00467E484E00E94140360E08CE10E9459
:100D000014038AE00E94ED0461E080E00E94F30495
:100D100061E080E00E94FB0461E080E00E94210528
:100D200083E00E94470584E10E94E80280E00E947F
:100D3000B10580E00E94BE0580E00E94CB0584E101
:100D40000E94E8020E94AB052E960FB6F894DEBF13
:100D50000FBECDBFDF91CF910F91FF90EF90DF904D
:100D6000CF90BF90AF90089584B18C6284B92A9AD5
:100D70008CB5837D8CBD8CB580658CBD08958EBD92
:100D80000DB407FEFDCF8EB50895CF92DF92EF929E
:100D9000FF920F931F93CF93DF93CDB7DEB72797C3
:100DA0000FB6F894DEBF0FBECDBF6C0109831A8366
:100DB000F22F2B83E32F3C83942F4D83752F5E837B
:100DC000862F6F83202F312F4F2F5E2F692F0E9488
:100DD000A1001E141F046CF410E0F601E10FF11DD8
:100DE00080810E94BF061F5F812F90E08E159F05B6
:100DF000A4F329813A814B815C816D817E818F8151
:100E00000E947A0027960FB6F894DEBF0FBECDBFC2
:100E1000DF91CF911F910F91FF90EF90DF90CF90D6
:100E20000895AF92BF92CF92DF92EF92FF920F930D
:100E30001F93CF93DF93CDB7DEB727970FB6F89404
:100E4000DEBF0FBECDBF5C0109831A83F22F2B8357
:100E5000E32F3C83942F4D83752F5E83862F6F8302
:100E6000202F312F4F2F5E2F692F0E94A1001E14BB
:100E70001F047CF410E06501C10ED11C80E00E94CB
:100E8000BF06F60180831F5F812F90E08E159F05BE
:100E900094F329813A814B815C816D817E818F81C0
:100EA0000E947A0027960FB6F894DEBF0FBECDBF22
:100EB000DF91CF911F910F91FF90EF90DF90CF9036
:100EC000BF90AF9008951092C5008CE08093C4004D
:100ED0001092C00088E18093C10086E08093C20038
:100EE00008958093C600E0ECF0E0808185FFFDCF9F
:100EF0000895CF93DF93EC018881882331F0219608
:100F00000E94710789918111FBCFDF91CF910895E4
:100F1000CF93DF93982F92959F709A3018F4D0E377
:100F2000D90F02C0D7E3D90F8F708A3018F4C0E30D
:100F3000C80F02C0C7E3C80F80E30E94710788E7AB
:100F40000E9471078D2F0E9471078C2F0E947107DC
:0A0F5000DF91CF910895F894FFCFD0
:100F5A002B002A002900062B002A002900072B0053
:100F6A002A002900042B002A002900052500240054
:100F7A002300002B002A0029000325002400230057
:100F8A000125002400230002250024002300032554
:100F9A000024002300042500240023000548656C72
:100FAA006C6F20776F726C64210A0D004E616400C9
:100FBA004F6462006E524632345F57616974545806
:0C0FCA0020737461747573203D200000DA
:00000001FF
