:100000000C9434000C9451000C9418010C94510081
:100010000C9451000C9451000C9451000C9451001C
:100020000C9451000C9451000C9451000C9451000C
:100030000C9451000C9451000C9451000C945100FC
:100040000C9451000C9451000C9451000C945100EC
:100050000C9451000C9451000C9451000C945100DC
:100060000C9451000C94510011241FBECFEFD4E02A
:10007000DEBFCDBF11E0A0E0B1E0E2E0FFE002C0F2
:1000800005900D92AC37B107D9F721E0ACE7B1E0AC
:1000900001C01D92AE38B207E1F70E9427010C940F
:1000A0007F070C940000CF93DF93CDB7DEB727977F
:1000B0000FB6F894DEBF0FBECDBF29833A834B83C2
:1000C0005C836D837E838F83E981FA81208181E067
:1000D00090E00F8002C0880F991F0A94E2F78227F0
:1000E000808327960FB6F894DEBF0FBECDBFDF9199
:1000F000CF910895CF93DF93CDB7DEB727970FB693
:10010000F894DEBF0FBECDBF29833A834B835C8357
:100110006D837E838F83E981FA81208181E090E085
:100120000F8002C0880F991F0A94E2F7822B808308
:1001300027960FB6F894DEBF0FBECDBFDF91CF91EB
:100140000895CF93DF93CDB7DEB727970FB6F89416
:10015000DEBF0FBECDBF29833A834B835C836D83A3
:100160007E838F83E981FA81208181E090E00F8096
:1001700002C0880F991F0A94E2F78095822380833A
:1001800027960FB6F894DEBF0FBECDBFDF91CF919B
:100190000895CF93DF93CDB7DEB727970FB6F894C6
:1001A000DEBF0FBECDBF29833A834B835C836D8353
:1001B0007E838F83EB81FC81208181E090E00F8042
:1001C00002C0880F991F0A94E2F7822B808327963A
:1001D0000FB6F894DEBF0FBECDBFDF91CF9108956B
:1001E000CF93DF93CDB7DEB727970FB6F894DEBF76
:1001F0000FBECDBF29833A834B835C836D837E839F
:100200008F83EB81FC81208181E090E00F8002C030
:10021000880F991F0A94E2F780958223808327969E
:100220000FB6F894DEBF0FBECDBFDF91CF9108951A
:100230001F920F920FB60F9211248F9381E080933B
:100240007C018F910F900FBE0F901F901895CF9348
:10025000DF93CDB7DEB7CE54D1090FB6F894DEBF29
:100260000FBECDBF87E0E7E0F1E0DE01119601901F
:100270000D928A95E1F787E0EEE0F1E0DE01189655
:1002800001900D928A95E1F787E0E5E1F1E0DE016A
:100290001F9601900D928A95E1F787E0ECE1F1E07D
:1002A000DE01569601900D928A95E1F787E0E3E230
:1002B000F1E0DE015D9601900D928A95E1F787E00D
:1002C000EAE2F1E0DE01949601900D928A95E1F761
:1002D00087E0E1E3F1E0DE019B9601900D928A95C3
:1002E000E1F787E0E8E3F1E0DE01D29601900D92BC
:1002F0008A95E1F787E0EFE3F1E0DE01D99601901E
:100300000D928A95E1F787E0E6E4F1E0DE01A05C7A
:10031000BF4F01900D928A95E1F729813A814B8177
:100320005C816D817E818F810E94C900288539851D
:100330004A855B856C857D858E850E94C9002F85E9
:10034000388949895A896B897C898D890E94C900BD
:10035000209100013091010140910201509103016F
:100360006091040170910501809106010E94C9000D
:1003700021962FAD219722963FAD229723964FAD20
:10038000239724965FAD249725966FAD25972696E3
:100390007FAD269727968FAD27970E94C9002AA97F
:1003A0003BA94CA95DA96EA97FA988AD0E94C9008F
:1003B0002BA53CA54DA55EA56FA578A989A90E948E
:1003C000C9002CA13DA14EA15FA168A579A58AA570
:1003D0000E94C90029AD3AAD4BAD5CAD6DAD7EADAF
:1003E0008FAD0E94F0002E893F89488D598D6A8D0E
:1003F0007B8D8C8D0E94F0002D8D3E8D4F8D58A1F0
:1004000069A17AA18BA10E94F00029813A814B81D8
:100410005C816D817E818F810E947A00288539857B
:100420004A855B856C857D858E850E947A002BA52B
:100430003CA54DA55EA56FA578A989A90E947A0063
:100440000E9437078DE491E00E944D078AEA2896C2
:100450008FAF2897E9E6F0E080818C608083E99A8D
:100460007894ACA0BDA0CEA0DFA0E8A4F9A40AA512
:100470002BA53CA54DA55EA56FA578A989A90E94CD
:10048000EB056CE571E080E00E94280580E691E0D4
:100490000E944A050E94860487E0FE013F96DE0125
:1004A000A85BBF4F01900D928A95E1F729962FAD79
:1004B00029972A963FAD2A972B964FAD2B972C96CE
:1004C0005FAD2C972D966FAD2D972E967FAD2E9705
:1004D0002F968FAD2F970E947A002FE38DE093E047
:1004E000215080409040E1F700C0000029962FADD8
:1004F00029972A963FAD2A972B964FAD2B972C968E
:100500005FAD2C972D966FAD2D972E967FAD2E97C4
:100510002F968FAD2F970E94A10029813A814B81A0
:100520005C816D817E818F810E94A10080917C0120
:100530008130E1F710927C01CE01895B9F4F0E94D0
:10054000AC0589EF90E00197F1F700C000000E9430
:10055000B20529813A814B815C816D817E818F81D9
:100560000E9453009FE32DE083E0915020408040A3
:10057000E1F700C00000E0CF90E0009769F020E0D4
:1005800030E0E9EFF0E03197F1F700C000002F5FB5
:100590003F4F28173907A9F70895EF92FF920F935D
:1005A0001F93E62EF12C009184011091850120917A
:1005B00086013091870140918801509189016091B5
:1005C0008A010E9499061F910F91FF90EF90089564
:1005D000CF93DF9300D0CDB7DEB7806289836A8383
:1005E00020918401309185014091860150918701CD
:1005F000609188017091890180918A010E94A10017
:1006000062E0CE0101960E94CD02209184013091DA
:100610008501409186015091870160918801709118
:10062000890180918A010E947A000F900F90DF91DA
:10063000CF910895FF920F931F93CF93DF931F9253
:10064000CDB7DEB78B01F42E8062898320918401BF
:100650003091850140918601509187016091880118
:100660007091890180918A010E94A10061E0CE0110
:1006700001960E94CD026F2DC8010E94CD022091EB
:1006800084013091850140918601509187016091EC
:1006900088017091890180918A010E947A000F90EF
:1006A000DF91CF911F910F91FF900895EF92FF92EC
:1006B0000F931F93CF93DF9300D0CDB7DEB78A831C
:1006C00020918401309185014091860150918701EC
:1006D000609188017091890180918A010E94A10036
:1006E00061E0CE0102960E94CD02EE24E394F12C4B
:1006F000009184011091850120918601309187013C
:10070000409188015091890160918A01CE01019642
:100710000E94E50620918401309185014091860177
:1007200050918701609188017091890180918A01BF
:100730000E947A0089810F900F90DF91CF911F91D5
:100740000F91FF90EF900895CF92DF92EF92FF927A
:100750000F931F93CF93DF931F92CDB7DEB789839B
:100760006B01E42E20918401309185014091860136
:1007700050918701609188017091890180918A016F
:100780000E94A10061E0CE0101960E94CD02F12CF1
:10079000009184011091850120918601309187019B
:1007A000409188015091890160918A01C6010E949F
:1007B000E506209184013091850140918601509198
:1007C0008701609188017091890180918A010E945E
:1007D0007A000F90DF91CF911F910F91FF90EF90D2
:1007E000DF90CF90089580E00E9456030895682F0F
:1007F00080E00E94E8020895CF93C82F86E00E940F
:1008000056036C2F660F887F682B86E00E94E802F3
:10081000CF910895CF93C82F86E00E945603682F8A
:10082000677DC23011F4606203C0C13009F46860B2
:1008300086E00E94E802CF91089587E00E94560367
:100840000895682F87E00E94E8020895CF93DF9310
:100850001F92CDB7DEB782EE89832091840130915B
:1008600085014091860150918701609188017091C6
:10087000890180918A010E94A10061E0CE01019668
:100880000E94CD0220918401309185014091860122
:1008900050918701609188017091890180918A014E
:1008A0000E947A000F90DF91CF910895CF93DF934C
:1008B0001F92CDB7DEB781EE8983209184013091FC
:1008C0008501409186015091870160918801709166
:1008D000890180918A010E94A10061E0CE01019608
:1008E0000E94CD02209184013091850140918601C2
:1008F00050918701609188017091890180918A01EE
:100900000E947A000F90DF91CF91089520917D0190
:1009100030917E0140917F01509180016091810171
:1009200070918201809183010E94A1000E94F303D3
:100930008E7F82600E94F70380E70E9421040E945C
:1009400026040E94560481E00E94BC020895CF93C1
:10095000C82F0E94F303CC2311F0886001C0877F69
:100960000E94F703CF910895CF93C82F0E94F303FD
:10097000C13011F4846001C08B7F0E94F703CF91D6
:100980000895682F6F7785E00E94E80208956F73DD
:10099000863008F085E08F5E0E94E8020895CF93CC
:1009A000DF93D62FC82F863008F0C5E082E00E9482
:1009B0005603D13051F421E030E002C0220F331F42
:1009C000CA95E2F7682F622B0AC021E030E002C02E
:1009D000220F331FCA95E2F72095622F682382E029
:1009E0000E94E802DF91CF910895CF93DF93D62F35
:1009F000C82F863008F0C5E081E00E945603D13050
:100A000051F421E030E002C0220F331FCA95E2F713
:100A1000682F622B0AC021E030E002C0220F331F92
:100A2000CA95E2F72095622F682381E00E94E802D0
:100A3000DF91CF910895863008F085E0833008F487
:100A400083E08250682F637083E00E94E80208957B
:100A5000CF93DF9300D01F92CDB7DEB7823078F40A
:100A6000FB0190819B8391819A839281998343E0DA
:100A7000BE016F5F7F4F865F0E941A0305C0FB01B6
:100A80006281865F0E94E8020F900F900F90DF91C5
:100A9000CF9108950F931F93CF93DF9300D01F92B0
:100AA000CDB7DEB78C0143E0BE016F5F7F4F8AE0B8
:100AB0000E94A403EBE8F1E0898182838A8181832B
:100AC0008B818083F80180818B8381818A838281FD
:100AD000898343E0BE016F5F7F4F8AE00E941A0363
:100AE00043E0BE016F5F7F4F80E10E941A030F90C9
:100AF0000F900F90DF91CF911F910F9108950E9459
:100B00001D0480670E9421040895CF93C82F0E947E
:100B1000F303C11102C0806401C08F7B0E94F70300
:100B2000CF910895CF93C82F0E94F303C11102C043
:100B3000806201C08F7D0E94F703CF910895CF930B
:100B4000C82F0E94F303C11102C0806101C08F7ED3
:100B50000E94F703CF91089541E0BC0180EA0E9412
:100B60001A030895CF9320917D0130917E01409129
:100B70007F0150918001609181017091820180918B
:100B800083010E947A0081E00E94BC0220917D01D5
:100B900030917E0140917F015091800160918101EF
:100BA00070918201809183010E94A10084E60E94DD
:100BB000BC020E941D04C82F84E691E00E944D07EC
:100BC0008C2F0E945C0789E591E00E944D07C0735D
:100BD00069F3CF910895AF92BF92CF92DF92EF92D7
:100BE000FF920F93CF93DF93CDB7DEB72E970FB65B
:100BF000F894DEBF0FBECDBF29833A834B835C835D
:100C00006D837E838F83A886B986CA86DB86EC8651
:100C1000FD860E8787E0FE013196A4E8B1E00190E1
:100C20000D928A95E1F787E0FE013896ADE7B1E0D5
:100C300001900D928A95E1F70E94880620917D012E
:100C400030917E0140917F0150918001609181013E
:100C500070918201809183010E94A1002091840102
:100C60003091850140918601509187016091880102
:100C70007091890180918A010E947A0085E00E942A
:100C8000BC0283E00E94FC0382E00E940A0481E02F
:100C90000E94A70480E00E94B40467E484E00E94FC
:100CA000E80260E08CE10E94E8028AE00E94C10450
:100CB00061E080E00E94C70461E080E00E94CF0410
:100CC00061E080E00E94F50483E00E941B0584E15E
:100CD0000E94BC0280E00E94850580E00E9492058F
:100CE00080E00E949F0584E10E94BC020E947F0573
:100CF0002E960FB6F894DEBF0FBECDBFDF91CF9119
:100D00000F91FF90EF90DF90CF90BF90AF9008953C
:100D100084B18C6284B92A9A8CB5837D8CBD8CB5E4
:100D200080658CBD08958EBD0DB407FEFDCF8EB5D8
:100D30000895CF92DF92EF92FF920F931F93CF937C
:100D4000DF93CDB7DEB727970FB6F894DEBF0FBE9F
:100D5000CDBF6C0109831A83F22F2B83E32F3C83D1
:100D6000942F4D83752F5E83862F6F83202F312F15
:100D70004F2F5E2F692F0E94A1001E141F046CF4D8
:100D800010E0F601E10FF11D80810E9493061F5FC4
:100D9000812F90E08E159F05A4F329813A814B8124
:100DA0005C816D817E818F810E947A0027960FB6CB
:100DB000F894DEBF0FBECDBFDF91CF911F910F9191
:100DC000FF90EF90DF90CF900895AF92BF92CF92B7
:100DD000DF92EF92FF920F931F93CF93DF93CDB7E4
:100DE000DEB727970FB6F894DEBF0FBECDBF5C010C
:100DF00009831A83F22F2B83E32F3C83942F4D8397
:100E0000752F5E83862F6F83202F312F4F2F5E2FFC
:100E1000692F0E94A1001E141F047CF410E06501DC
:100E2000C10ED11C80E00E949306F60180831F5FF3
:100E3000812F90E08E159F0594F329813A814B8193
:100E40005C816D817E818F810E947A0027960FB62A
:100E5000F894DEBF0FBECDBFDF91CF911F910F91F0
:100E6000FF90EF90DF90CF90BF90AF9008951092D9
:100E7000C5008CE08093C4001092C00088E180938C
:100E8000C10086E08093C20008958093C600E0EC24
:100E9000F0E0808185FFFDCF0895CF93DF93EC01D3
:100EA0008881882331F021960E944507899181111C
:100EB000FBCFDF91CF910895CF93DF93982F929539
:100EC0009F709A3018F4D0E3D90F02C0D7E3D90F3E
:100ED0008F708A3018F4C0E3C80F02C0C7E3C80F90
:100EE00080E30E94450788E70E9445078D2F0E94F6
:100EF00045078C2F0E944507DF91CF910895F89404
:020F0000FFCF21
:100F02002B002A002900052B002A002900062B00AD
:100F12002A002900072B002A0029000425002400AA
:100F22002300002B002A00290003250024002300AF
:100F320001250024002300022500240023000325AC
:100F42000024002300042500240023000548656CCA
:100F52006C6F20776F726C64210A0D004E61640021
:100F62004F6462006E524632345F5761697454585E
:0C0F720020737461747573203D20000032
:00000001FF
