:100000000C9434000C9449000C9449000C94490061
:100010000C9449000C9449000C9449000C9449003C
:100020000C9449000C9449000C9449000C9449002C
:100030000C9449000C9449000C9449000C9449001C
:100040000C9449000C9449000C9449000C9449000C
:100050000C9449000C9449000C9449000C944900FC
:100060000C9449000C94490011241FBECFEFD4E03A
:10007000DEBFCDBF11E0A0E0B1E0E4E5F1E002C0F9
:1000800005900D92AE30B107D9F70E944B000C9449
:10009000A8000C940000CF93DF93CDB7DEB72E9766
:1000A0000FB6F894DEBF0FBECDBF87E0E0E0F1E011
:1000B000DE01119601900D928A95E1F787E0E7E065
:1000C000F1E0DE01189601900D928A95E1F7579ABA
:1000D000549A559A5F9A5C9A2FE33DE083E0215051
:1000E00030408040E1F700C000005C9824E141E02E
:1000F00050E0E885F9853081CA010E8402C0880F7E
:10010000991F0A94E2F7832780839FE53AEE80E007
:10011000915030408040E1F700C00000215049F785
:1001200041E050E09FE926E831E091502040304026
:10013000E1F700C00000E981FA812081CA010F8047
:1001400002C0880F991F0A94E2F782278083EACFC2
:04015000F894FFCF51
:0E0154002B002A002900072B002A0029000595
:00000001FF
