:100000000C9434000C9451000C94F0000C94FF00FC
:100010000C9451000C9451000C9451000C9451001C
:100020000C9451000C9451000C9451000C9451000C
:100030000C9451000C9451000C9451000C945100FC
:100040000C9451000C9451000C9451000C945100EC
:100050000C9451000C9451000C9451000C945100DC
:100060000C9451000C94510011241FBECFEFD4E02A
:10007000DEBFCDBF11E0A0E0B1E0E4ECF3E002C0F0
:1000800005900D92A233B107D9F721E0A2E3B1E0C8
:1000900001C01D92A433B207E1F70E940E010C9437
:1000A000E0010C940000CF93DF93CDB7DEB7279724
:1000B0000FB6F894DEBF0FBECDBF29833A834B83C2
:1000C0005C836D837E838F83E981FA81208181E067
:1000D00090E00F8002C0880F991F0A94E2F78227F0
:1000E000808327960FB6F894DEBF0FBECDBFDF9199
:1000F000CF910895CF93DF93CDB7DEB727970FB693
:10010000F894DEBF0FBECDBF29833A834B835C8357
:100110006D837E838F83E981FA81208181E090E085
:100120000F8002C0880F991F0A94E2F7822B808308
:1001300027960FB6F894DEBF0FBECDBFDF91CF91EB
:100140000895CF93DF93CDB7DEB727970FB6F89416
:10015000DEBF0FBECDBF29833A834B835C836D83A3
:100160007E838F83E981FA81208181E090E00F8096
:1001700002C0880F991F0A94E2F78095822380833A
:1001800027960FB6F894DEBF0FBECDBFDF91CF919B
:100190000895CF93DF93CDB7DEB727970FB6F894C6
:1001A000DEBF0FBECDBF29833A834B835C836D8353
:1001B0007E838F83EB81FC81208181E090E00F8042
:1001C00002C0880F991F0A94E2F7822B808327963A
:1001D0000FB6F894DEBF0FBECDBFDF91CF9108956B
:1001E0001F920F920FB60F9211248F9381E080938C
:1001F00033018F910F900FBE0F901F9018951F9293
:100200000F920FB60F9211248F9381E080933201E9
:100210008F910F900FBE0F901F901895CF93DF9383
:10022000CDB7DEB7E1970FB6F894DEBF0FBECDBFF6
:1002300087E0E0E0F1E0DE01119601900D928A95F1
:10024000E1F787E0E7E0F1E0DE01189601900D921A
:100250008A95E1F787E0EEE0F1E0DE011F9601907C
:100260000D928A95E1F787E0E5E1F1E0DE0156962F
:1002700001900D928A95E1F787E0ECE1F1E0DE0173
:100280005D9601900D928A95E1F787E0E3E2F1E057
:10029000DE01949601900D928A95E1F787E0EAE2FB
:1002A000F1E0DE019B9601900D928A95E1F729819C
:1002B0003A814B815C816D817E818F810E94C90072
:1002C000288539854A855B856C857D858E850E946C
:1002D000C9002F85388949895A896B897C898D891C
:1002E0000E94C9002E893F89488D598D6A8D7B8D6A
:1002F0008C8D0E94C9002BA53CA54DA55EA56FA5C0
:1003000078A989A90E94C9002CA13DA14EA15FA195
:1003100068A579A58AA50E94C9002D8D3E8D4F8DB7
:1003200058A169A17AA18BA10E94C900789428855F
:1003300039854A855B856C857D858E850E947A002E
:100340002F85388949895A896B897C898D890E94D2
:100350007A002FE38DE093E0215080409040E1F758
:1003600000C000002F85388949895A896B897C89AA
:100370008D890E94A10014E12E893F89488D598DF5
:100380006A8D7B8D8C8D0E9453002FE58AEE90E064
:10039000215080409040E1F700C00000115061F70B
:1003A000809133018130E1F710923301288539853E
:1003B0004A855B856C857D858E850E945300F0CFD4
:0403C000F894FFCFDF
:1003C4002B002A002900062B002A002900072B00F5
:1003D4002A002900042B002A0029000525002400F6
:1003E4002300022500240023000325002400230009
:0203F400050002
:00000001FF
