S013000050726F6772616D5F6E52462E73726563D4
S11300000C9434000C9449000C9449000C9449005D
S11300100C9449000C9449000C9449000C94490038
S11300200C9449000C9449000C9449000C94490028
S11300300C9449000C9449000C9449000C94490018
S11300400C9449000C9449000C9449000C94490008
S11300500C9449000C9449000C9449000C944900F8
S11300600C9449000C94490011241FBECFEFD4E036
S1130070DEBFCDBF11E0A0E0B1E0ECE7F3E002C0E9
S113008005900D92A233B107D9F70E94E8000C94B1
S1130090BC010C940000CF93DF93CDB7DEB7279754
S11300A00FB6F894DEBF0FBECDBF29833A834B83CE
S11300B05C836D837E838F83E981FA81208181E073
S11300C090E00F8002C0880F991F0A94E2F78227FC
S11300D0808327960FB6F894DEBF0FBECDBFDF91A5
S11300E0CF910895CF93DF93CDB7DEB727970FB69F
S11300F0F894DEBF0FBECDBF29833A834B835C8364
S11301006D837E838F83E981FA81208181E090E091
S11301100F8002C0880F991F0A94E2F7822B808314
S113012027960FB6F894DEBF0FBECDBFDF91CF91F7
S11301300895CF93DF93CDB7DEB727970FB6F89422
S1130140DEBF0FBECDBF29833A834B835C836D83AF
S11301507E838F83E981FA81208181E090E00F80A2
S113016002C0880F991F0A94E2F780958223808346
S113017027960FB6F894DEBF0FBECDBFDF91CF91A7
S11301800895CF93DF93CDB7DEB727970FB6F894D2
S1130190DEBF0FBECDBF29833A834B835C836D835F
S11301A07E838F83EB81FC81208181E090E00F804E
S11301B002C0880F991F0A94E2F7822B8083279646
S11301C00FB6F894DEBF0FBECDBFDF91CF91089577
S11301D0CF93DF93CDB7DEB7E1970FB6F894DEBFC8
S11301E00FBECDBF87E0E0E0F1E0DE0111960190A3
S11301F00D928A95E1F787E0E7E0F1E0DE011896D9
S113020001900D928A95E1F787E0EEE0F1E0DE01DE
S11302101F9601900D928A95E1F787E0E5E1F1E000
S1130220DE01569601900D928A95E1F787E0ECE1A4
S1130230F1E0DE015D9601900D928A95E1F787E089
S1130240E3E2F1E0DE01949601900D928A95E1F7E4
S113025087E0EAE2F1E0DE019B9601900D928A9537
S1130260E1F729813A814B815C816D817E818F81A7
S11302700E94C100288539854A855B856C857D850A
S11302808E850E94C1002F85388949895A896B89D6
S11302907C898D890E94C1002E893F89488D598DA2
S11302A06A8D7B8D8C8D0E94C1002BA53CA54DA52C
S11302B05EA56FA578A989A90E94C1002CA13DA1C2
S11302C04EA15FA168A579A58AA50E94C1002D8DC4
S11302D03E8D4F8D58A169A17AA18BA10E94C100C6
S11302E0288539854A855B856C857D858E850E9448
S11302F072002F85388949895A896B897C898D894F
S11303000E9472002FE38DE093E0215080409040E2
S1130310E1F700C000002F85388949895A896B8923
S11303207C898D890E94990014E12E893F89488D2A
S1130330598D6A8D7B8D8C8D0E944B002FE58AEE42
S113034090E0215080409040E1F700C0000011503F
S113035061F72FE986E891E0215080409040E1F771
S113036000C00000288539854A855B856C857D85BC
S10F03708E850E944B00EDCFF894FFCF67
S113037C2B002A002900062B002A002900072B0039
S113038C2A002900042B002A00290005250024003A
S113039C230002250024002300032500240023004D
S10503AC050046
S9030000FC
