:100000000C9434000C9449000C9449000C94490061
:100010000C9449000C9449000C9449000C9449003C
:100020000C9449000C9449000C9449000C9449002C
:100030000C9449000C9449000C9449000C9449001C
:100040000C9449000C9449000C9449000C9449000C
:100050000C9449000C9449000C9449000C944900FC
:100060000C9449000C94490011241FBECFEFD4E03A
:10007000DEBFCDBF11E0A0E0B1E0ECEEF2E002C0E7
:1000800005900D92A631B107D9F70E94E8000C94B3
:1000900074010C940000CF93DF93CDB7DEB72797A0
:1000A0000FB6F894DEBF0FBECDBF29833A834B83D2
:1000B0005C836D837E838F83E981FA81208181E077
:1000C00090E00F8002C0880F991F0A94E2F7822700
:1000D000808327960FB6F894DEBF0FBECDBFDF91A9
:1000E000CF910895CF93DF93CDB7DEB727970FB6A3
:1000F000F894DEBF0FBECDBF29833A834B835C8368
:100100006D837E838F83E981FA81208181E090E095
:100110000F8002C0880F991F0A94E2F7822B808318
:1001200027960FB6F894DEBF0FBECDBFDF91CF91FB
:100130000895CF93DF93CDB7DEB727970FB6F89426
:10014000DEBF0FBECDBF29833A834B835C836D83B3
:100150007E838F83E981FA81208181E090E00F80A6
:1001600002C0880F991F0A94E2F78095822380834A
:1001700027960FB6F894DEBF0FBECDBFDF91CF91AB
:100180000895CF93DF93CDB7DEB727970FB6F894D6
:10019000DEBF0FBECDBF29833A834B835C836D8363
:1001A0007E838F83EB81FC81208181E090E00F8052
:1001B00002C0880F991F0A94E2F7822B808327964A
:1001C0000FB6F894DEBF0FBECDBFDF91CF9108957B
:1001D000CF93DF93CDB7DEB765970FB6F894DEBF48
:1001E0000FBECDBF87E0E0E0F1E0DE0111960190A7
:1001F0000D928A95E1F787E0E7E0F1E0DE011896DD
:1002000001900D928A95E1F787E0EEE0F1E0DE01E2
:100210001F9601900D928A95E1F729813A814B81D1
:100220005C816D817E818F810E94C1002885398526
:100230004A855B856C857D858E850E94C1002F85F2
:10024000388949895A896B897C898D890E94C100C6
:1002500029813A814B815C816D817E818F810E94F1
:100260007200288539854A855B856C857D858E85FC
:100270000E9472002FE38DE093E021508040904077
:10028000E1F700C00000288539854A855B856C85CB
:100290007D858E850E94990014E12F8538894989D2
:1002A0005A896B897C898D890E944B002FE58AEEE3
:1002B00090E0215080409040E1F700C000001150D4
:1002C00061F72FE986E891E0215080409040E1F706
:1002D00000C0000029813A814B815C816D817E8163
:0C02E0008F810E944B00EDCFF894FFCFFF
:1002EC002B002A002900072B002A002900042B00D0
:0602FC002A0029000500A4
:00000001FF
