S013000050726F6772616D5F6E52462E73726563D4
S11300000C9434000C9451000C9418010C942701A6
S11300100C9451000C9451000C9451000C94510018
S11300200C9451000C9451000C9451000C94510008
S11300300C9451000C9451000C9451000C945100F8
S11300400C9451000C9451000C9451000C945100E8
S11300500C9451000C9451000C9451000C945100D8
S11300600C9451000C94510011241FBECFEFD4E026
S1130070DEBFCDBF11E0A0E0B1E0E4E3F5E102C0F2
S113008005900D92A635B107D9F721E0A6E5B1E0B8
S113009001C01D92AB35B207E1F70E9437010C9401
S11300A0980A0C940000CF93DF93CDB7DEB727975F
S11300B00FB6F894DEBF0FBECDBF29833A834B83BE
S11300C05C836D837E838F83E981FA81208181E063
S11300D090E00F8002C0880F991F0A94E2F78227EC
S11300E0808327960FB6F894DEBF0FBECDBFDF9195
S11300F0CF910895CF93DF93CDB7DEB727970FB68F
S1130100F894DEBF0FBECDBF29833A834B835C8353
S11301106D837E838F83E981FA81208181E090E081
S11301200F8002C0880F991F0A94E2F7822B808304
S113013027960FB6F894DEBF0FBECDBFDF91CF91E7
S11301400895CF93DF93CDB7DEB727970FB6F89412
S1130150DEBF0FBECDBF29833A834B835C836D839F
S11301607E838F83E981FA81208181E090E00F8092
S113017002C0880F991F0A94E2F780958223808336
S113018027960FB6F894DEBF0FBECDBFDF91CF9197
S11301900895CF93DF93CDB7DEB727970FB6F894C2
S11301A0DEBF0FBECDBF29833A834B835C836D834F
S11301B07E838F83EB81FC81208181E090E00F803E
S11301C002C0880F991F0A94E2F7822B8083279636
S11301D00FB6F894DEBF0FBECDBFDF91CF91089567
S11301E0CF93DF93CDB7DEB727970FB6F894DEBF72
S11301F00FBECDBF29833A834B835C836D837E839B
S11302008F83EB81FC81208181E090E00F8002C02C
S1130210880F991F0A94E2F780958223808327969A
S11302200FB6F894DEBF0FBECDBFDF91CF91089516
S11302301F920F920FB60F9211248F9381E0809337
S113024057018F910F900FBE0F901F9018951F921A
S11302500F920FB60F9211248F9385B181E0809392
S113026056018F910F900FBE0F901F901895CF934A
S1130270DF93CDB7DEB7CE54D1090FB6F894DEBF05
S11302800FBECDBF87E0E0E0F1E0DE011196019002
S11302900D928A95E1F787E0E7E0F1E0DE01189638
S11302A001900D928A95E1F787E0EEE0F1E0DE013E
S11302B01F9601900D928A95E1F787E0E5E1F1E060
S11302C0DE01569601900D928A95E1F787E0ECE104
S11302D0F1E0DE015D9601900D928A95E1F787E0E9
S11302E0E3E2F1E0DE01949601900D928A95E1F744
S11302F087E0EAE2F1E0DE019B9601900D928A9597
S1130300E1F787E0E1E3F1E0DE01D29601900D929E
S11303108A95E1F787E0E8E3F1E0DE01D996019000
S11303200D928A95E1F787E0EFE3F1E0DE01A05C4E
S1130330BF4F01900D928A95E1F787E0E6E4F1E082
S1130340DE01A95BBF4F01900D928A95E1F72981E7
S11303503A814B815C816D817E818F810E94C900CD
S1130360288539854A855B856C857D858E850E94C7
S1130370C9002F85388949895A896B897C898D8977
S11303800E94C9002E893F89488D598D6A8D7B8DC5
S11303908C8D0E94C90028962FAD289729963FADD1
S11303A029972A964FAD2A972B965FAD2B972C96BB
S11303B06FAD2C972D967FAD2D972E968FAD2E97E2
S11303C00E94C90029AD3AAD4BAD5CAD6DAD7EADBB
S11303D08FAD0E94C9002AA93BA94CA95DA96EA9A9
S11303E07FA988AD0E94C9002BA53CA54DA55EA59B
S11303F06FA578A989A90E94C90021962FAD2197DC
S113040022963FAD229723964FAD239724965FAD56
S1130410249725966FAD259726967FAD2697279628
S11304208FAD27970E94F0002D8D3E8D4F8D58A1E2
S113043069A17AA18BA10E94F0002CA13DA14EA13B
S11304405FA168A579A58AA50E94F00029813A8157
S11304504B815C816D817E818F810E947A00288529
S113046039854A855B856C857D858E850E947A00F9
S11304702AA93BA94CA95DA96EA97FA988AD0E94B0
S11304807A00E8E6F0E0808181608083EBE6F0E0CA
S11304908081816080837894AAA8BBA8CCA8DDA8B9
S11304A0EEA8FFA808AD2BA53CA54DA55EA56FA59C
S11304B078A989A90E942109EAA8FBA80CA91DA969
S11304C02EA93FA948AD6DE471E080E00E94490780
S11304D00AA91BA92CA93DA94EA95FA968AD81E56C
S11304E091E00E941008AAA8BBA8CCA8DDA8EEA899
S11304F0FFA808AD2BA53CA54DA55EA56FA578A9C1
S113050089A90E9493072F85388949895A896B895B
S11305107C898D890E947A002FE38DE093E021503D
S113052080409040E1F700C000002F853889498958
S11305305A896B897C898D890E94A100809156011A
S1130540813059F41092560129813A814B815C81A2
S11305506D817E818F810E9453002AA93BA94CA9F9
S11305605DA96EA97FA988AD0E94F108882331F3A3
S11305700AA91BA92CA93DA94EA95FA968ADCE0162
S1130580825B9F4F0E949E08288539854A855B853A
S11305906C857D858E850E945300D0CFEF92FF92AB
S11305A00F931F93CF93DF93CDB7DEB760970FB64A
S11305B0F894DEBF0FBECDBFEA86FB860C871D878D
S11305C02E873F87488B806289836A8387E0FE0198
S11305D03A96DE01139601900D928A95E1F768949C
S11305E0EE24E1F8F12C0B811C812D813E814F8199
S11305F058856985CE0101960E94FA0960960FB666
S1130600F894DEBF0FBECDBFDF91CF911F910F9144
S1130610FF90EF9008958F929F92BF92CF92DF92B6
S1130620EF92FF920F931F93CF93DF93CDB7DEB773
S113063066970FB6F894DEBF0FBECDBF8F874B0110
S1130640B42EC88A3D2DD98A4E2DEA8A5F2DFB8AA5
S1130650602F0C8B712F1D8B822F2E8B2C2D0E94C3
S1130660A10087E0FE017096DE01119601900D92C3
S11306708A95E1F7EE24E394F12C09811A812B8108
S11306803C814D815E816F81CE010F960E94FA09F3
S113069087E0FE017096DE01189601900D928A950E
S11306A0E1F7EB2CF12C088519852A853B854C85CF
S11306B05D856E85C4010E94460A288939894A8964
S11306C05B896C897D898E890E947A0066960FB653
S11306D0F894DEBF0FBECDBFDF91CF911F910F9174
S11306E0FF90EF90DF90CF90BF909F908F900895F0
S11306F0EF92FF920F931F93CF93DF93CDB7DEB7A3
S113070067970FB6F894DEBF0FBECDBF888B098BF9
S11307101A8B2B8B3C8B4D8B5E8B6F8B87E0FE0192
S11307207196DE01129601900D928A95E1F7EE24FE
S1130730E394F12C0A811B812C813D814E815F81E0
S11307406885CE0140960E94FA0987E0FE01719601
S1130750DE01199601900D928A95E1F709851A85B3
S11307602B853C854D855E856F85CE0101960E9463
S1130770460A898167960FB6F894DEBF0FBECDBFD7
S1130780DF91CF911F910F91FF90EF9008958F9279
S11307909F92BF92CF92DF92EF92FF920F931F939B
S11307A0CF93DF93CDB7DEB766970FB6F894DEBF6D
S11307B00FBECDBF4B01B42EC88AD98AEA8AFB8A00
S11307C00C8B1D8B2E8B80628F8787E0FE017096C9
S11307D0DE01119601900D928A95E1F7EE24E394DF
S11307E0F12C09811A812B813C814D815E816F81BD
S11307F0CE010F960E94FA0987E0FE017096DE0191
S1130800189601900D928A95E1F7EB2CF12C08854E
S113081019852A853B854C855D856E85C4010E94BA
S1130820FA0966960FB6F894DEBF0FBECDBFDF910E
S1130830CF911F910F91FF90EF90DF90CF90BF90D9
S11308409F908F9008950F931F93CF93DF93CDB70D
S1130850DEB727970FB6F894DEBF0FBECDBF022FC9
S1130860132F242F352F462F572F682F80E00E94F7
S1130870780327960FB6F894DEBF0FBECDBFDF9185
S1130880CF911F910F910895EF92FF920F931F93B1
S1130890CF93DF93CDB7DEB727970FB6F894DEBFBB
S11308A00FBECDBFE02EF12E022F132F242F352F94
S11308B0462F682F80E00E94CE0227960FB6F89448
S11308C0DEBF0FBECDBFDF91CF911F910F91FF907F
S11308D0EF900895EF92FF920F931F93CF93DF93BE
S11308E0CDB7DEB727970FB6F894DEBF0FBECDBFE6
S11308F0F82E09831A832B833C834D835E836F8395
S113090086E00E9478036F2D660F887F682BE9804C
S1130910FA800B811C812D813E814F8186E00E94EB
S1130920CE0227960FB6F894DEBF0FBECDBFDF917F
S1130930CF911F910F91FF90EF900895EF92FF9246
S11309400F931F93CF93DF93CDB7DEB727970FB6DF
S1130950F894DEBF0FBECDBFF82E09831A832B8314
S11309603C834D835E836F8386E00E947803682F07
S1130970677D82E0F81202C0606204C081E0F81270
S113098001C06860E980FA800B811C812D813E8161
S11309904F8186E00E94CE0227960FB6F894DEBF00
S11309A00FBECDBFDF91CF911F910F91FF90EF90BC
S11309B008950F931F93CF93DF93CDB7DEB7279797
S11309C00FB6F894DEBF0FBECDBF022F132F242F16
S11309D0352F462F572F682F87E00E9478032796DC
S11309E00FB6F894DEBF0FBECDBFDF91CF911F913C
S11309F00F910895EF92FF920F931F93CF93DF937C
S1130A00CDB7DEB727970FB6F894DEBF0FBECDBFC4
S1130A10E02EF12E022F132F242F352F462F682F6F
S1130A2087E00E94CE0227960FB6F894DEBF0FBE71
S1130A30CDBFDF91CF911F910F91FF90EF9008955B
S1130A40EF92FF920F931F93CF93DF93CDB7DEB74F
S1130A502F970FB6F894DEBF0FBECDBF29873A8714
S1130A604B875C876D877E878F8782EE898387E0DB
S1130A70FE013996DE01129601900D928A95E1F7F6
S1130A80EE24E394F12C0A811B812C813D814E815B
S1130A905F816885CE0101960E94FA092F960FB6F0
S1130AA0F894DEBF0FBECDBFDF91CF911F910F91A0
S1130AB0FF90EF900895EF92FF920F931F93CF93BF
S1130AC0DF93CDB7DEB72F970FB6F894DEBF0FBE16
S1130AD0CDBF29873A874B875C876D877E878F8751
S1130AE081EE898387E0FE013996DE01129601903A
S1130AF00D928A95E1F7EE24E394F12C0A811B818F
S1130B002C813D814E815F816885CE0101960E94D2
S1130B10FA092F960FB6F894DEBF0FBECDBFDF9152
S1130B20CF911F910F91FF90EF900895FF920F9333
S1130B301F93CF93DF93CDB7DEB727970FB6F89403
S1130B40DEBF0FBECDBFF82E09831A83F22F2B838D
S1130B50E32F3C83942F4D83752F5E83862F6F8301
S1130B60202F312F4F2F5E2F692F0E942304FF2047
S1130B7011F0886001C0877F09811A812B813C8133
S1130B804D815E816F810E94440427960FB6F894CC
S1130B90DEBF0FBECDBFDF91CF911F910F91FF90AC
S1130BA00895FF920F931F93CF93DF93CDB7DEB7D2
S1130BB027970FB6F894DEBF0FBECDBFF82E09837A
S1130BC01A83F22F2B83E32F3C83942F4D83752FAD
S1130BD05E83862F6F83202F312F4F2F5E2F692F37
S1130BE00E94230491E0F91202C0846001C08B7F4B
S1130BF009811A812B813C814D815E816F810E9424
S1130C00440427960FB6F894DEBF0FBECDBFDF9124
S1130C10CF911F910F91FF900895EF92FF920F9340
S1130C201F93CF93DF93CDB7DEB727970FB6F89412
S1130C30DEBF0FBECDBF8F77E02EF12E022F132F14
S1130C40242F352F462F682F85E00E94CE02279649
S1130C500FB6F894DEBF0FBECDBFDF91CF911F91C9
S1130C600F91FF90EF900895EF92FF920F931F93CF
S1130C70CF93DF93CDB7DEB727970FB6F894DEBFD7
S1130C800FBECDBFE982FA820B831C832D833E8382
S1130C904F836F73863008F085E0E980FA800B811A
S1130CA01C812D813E814F818F5E0E94CE0227964A
S1130CB00FB6F894DEBF0FBECDBFDF91CF911F9169
S1130CC00F91FF90EF900895DF92EF92FF920F93B0
S1130CD01F93CF93DF93CDB7DEB727970FB6F89462
S1130CE0DEBF0FBECDBFD62EE982FA820B831C83F2
S1130CF02D833E834F83F82E85E08F1520F40F2E2D
S1130D00F5E0FF2EF02D09811A812B813C814D8164
S1130D105E816F8182E00E94780391E0D9120AC05B
S1130D2021E030E002C0220F331FFA94E2F7682F6B
S1130D30622B0AC021E030E002C0220F331FFA9474
S1130D40E2F72095622F6823E980FA800B811C81E9
S1130D502D813E814F8182E00E94CE0227960FB6FC
S1130D60F894DEBF0FBECDBFDF91CF911F910F91DD
S1130D70FF90EF90DF900895DF92EF92FF920F9330
S1130D801F93CF93DF93CDB7DEB727970FB6F894B1
S1130D90DEBF0FBECDBFD62EE982FA820B831C8341
S1130DA02D833E834F83F82E85E08F1520F40F2E7C
S1130DB0F5E0FF2EF02D09811A812B813C814D81B4
S1130DC05E816F8181E00E94780391E0D9120AC0AC
S1130DD021E030E002C0220F331FFA94E2F7682FBB
S1130DE0622B0AC021E030E002C0220F331FFA94C4
S1130DF0E2F72095622F6823E980FA800B811C8139
S1130E002D813E814F8181E00E94CE0227960FB64C
S1130E10F894DEBF0FBECDBFDF91CF911F910F912C
S1130E20FF90EF90DF900895EF92FF920F931F933E
S1130E30CF93DF93CDB7DEB727970FB6F894DEBF15
S1130E400FBECDBF09831A832B833C834D835E83FE
S1130E506F83863008F085E0833008F483E08250A5
S1130E60682F6370E980FA800B811C812D813E819B
S1130E704F8183E00E94CE0227960FB6F894DEBF1E
S1130E800FBECDBFDF91CF911F910F91FF90EF90D7
S1130E900895CF92DF92EF92FF920F931F93CF9317
S1130EA0DF93CDB7DEB72A970FB6F894DEBF0FBE37
S1130EB0CDBFEC82FD820E831F83288739874A8742
S1130EC08230B0F4FB0190819B8391819A8392815B
S1130ED09983CE2CDF2CE02EF12E022F132F242FFA
S1130EE043E0BE016F5F7F4F865F0E94C7030CC063
S1130EF0EC80FD800E811F81288539854A85FB01A0
S1130F006281865F0E94CE022A960FB6F894DEBFF5
S1130F100FBECDBFDF91CF911F910F91FF90EF9046
S1130F20DF90CF900895AF92BF92CF92DF92EF926D
S1130F30FF920F931F93CF93DF93CDB7DEB72E9716
S1130F400FB6F894DEBF0FBECDBF29833A834B831F
S1130F505C836D837E838F832A2DA8863B2DB9867F
S1130F604C2DCA865D2DDB866E2DEC867F2DFD868D
S1130F70802F0E870E942304D82EE884F9840A85E2
S1130F801B852C853D854E8568E571E080E00E94D7
S1130F904907088519852A853B854C855D856E85BD
S1130FA08D2D83600E944404088519852A853B851C
S1130FB04C855D856E8580E70E94FA042885398515
S1130FC04A855B856C857D858E850E9420052885F4
S1130FD039854A855B856C857D858E850E945B0598
S1130FE029813A814B815C816D817E818F810E9450
S1130FF07A0089EF90E00197F1F700C000002E9687
S11310000FB6F894DEBF0FBECDBFDF91CF911F9115
S11310100F91FF90EF90DF90CF90BF90AF90089525
S1131020AF92BF92CF92DF92EF92FF920F931F93F2
S1131030CF93DF93CDB7DEB72A970FB6F894DEBF10
S11310400FBECDBF5C01C02E0C83D12E1D83E22EBA
S11310502E83F32E3F83042F4887152F5987262F7D
S11310606A8743E0BE016F5F7F4F8AE00E940B03F3
S1131070E8E5F1E0898182838A8181838B818083A1
S1131080F50180818B8381818A8382818983CC80ED
S1131090DD80EE80FF80088519852A8543E0BE0146
S11310A06F5F7F4F8AE00E94C703CC80DD80EE80B3
S11310B0FF80088519852A8543E0BE016F5F7F4F55
S11310C080E10E94C7032A960FB6F894DEBF0FBED4
S11310D0CDBFDF91CF911F910F91FF90EF90DF90E3
S11310E0CF90BF90AF9008950F931F93CF93DF934A
S11310F0CDB7DEB727970FB6F894DEBF0FBECDBFCE
S113110029833A834B835C836D837E838F830E9420
S1131110D90409811A812B813C814D815E816F81C3
S113112080670E94FA0427960FB6F894DEBF0FBEBC
S1131130CDBFDF91CF911F910F910895CF92DF9290
S1131140EF92FF920F931F93CF93DF93CDB7DEB748
S113115027970FB6F894DEBF0FBECDBFC02E09830C
S1131160D12E1A83E22E2B83F32E3C83042F4D833E
S1131170152F5E83262F6F8341E0BC0181E60E9418
S11311800B03E980FA800B811C812D813E814F8104
S113119061E087E00E94CE0229813A814B815C8123
S11311A06D817E818F810E94D90485FF0BC0E98007
S11311B0FA800B811C812D813E814F8160E287E0A2
S11311C00E94CE0227960FB6F894DEBF0FBECDBFA5
S11311D0DF91CF911F910F91FF90EF90DF90CF900F
S11311E008950F931F93CF93DF93CDB7DEB727975F
S11311F00FB6F894DEBF0FBECDBF29833A834B836D
S11312005C836D837E838F830E94D904982F9074AE
S113121086FF0BC009811A812B813C814D815E813F
S11312206F8180640E94FA0491E0892F27960FB69B
S1131230F894DEBF0FBECDBFDF91CF911F910F9108
S11312400895AF92BF92CF92DF92EF92FF920F93E5
S11312501F93CF93DF93CDB7DEB765970FB6F8949E
S1131260DEBF0FBECDBF288739874A875B876C876F
S11312707D878E87AF86B88AC98ADA8AEB8AFC8A28
S11312800D8B0E94A1002F85388949895A896B8961
S11312907C898D890E947A0089EF90E00197F1F7AB
S11312A000C000000F85188929893A894B895C8917
S11312B06D8983E00E946A040F85188929893A8917
S11312C04B895C896D8982E00E949E040F85188990
S11312D029893A894B895C896D8981E00E94960548
S11312E00F85188929893A894B895C896D8980E041
S11312F00E94D10587E0FE013F96DE011196019020
S11313000D928A95E1F7E980FA800B811C812D8189
S11313103E814F8167E484E00E94CE02EF84F88826
S113132009891A892B893C894D8960E08CE10E94E6
S1131330CE020F85188929893A894B895C896D8980
S11313408AE00E940D06EF84F88809891A892B899E
S11313503C894D8961E080E00E943406EF84F8887E
S113136009891A892B893C894D8961E080E00E94B2
S11313706406EF84F88809891A892B893C894D8988
S113138061E080E00E94BC060F85188929893A89AA
S11313904B895C896D8983E00E94140789EF90E092
S11313A00197F1F700C0000089EF90E00197F1F791
S11313B000C000002F85388949895A896B897C8946
S11313C08D890E94740865960FB6F894DEBF0FBE2F
S11313D0CDBFDF91CF911F910F91FF90EF90DF90E0
S11313E0CF90BF90AF9008958EBD0DB407FEFDCF92
S11313F08EB50895CF92DF92EF92FF920F931F93D1
S1131400CF93DF93CDB7DEB727970FB6F894DEBF3F
S11314100FBECDBF6C0109831A83F22F2B83E32FF8
S11314203C83942F4D83752F5E83862F6F83202FEB
S1131430312F4F2F5E2F692F0E94A1001E141F040D
S11314406CF410E0F601E10FF11D80810E94F409B3
S11314501F5F812F90E08E159F05A4F329813A81A7
S11314604B815C816D817E818F810E947A002796F9
S11314700FB6F894DEBF0FBECDBFDF91CF911F91A1
S11314800F91FF90EF90DF90CF900895AF92BF92AD
S1131490CF92DF92EF92FF920F931F93CF93DF933C
S11314A0CDB7DEB727970FB6F894DEBF0FBECDBF1A
S11314B05C0109831A83F22F2B83E32F3C83942F3F
S11314C04D83752F5E83862F6F83202F312F4F2FEF
S11314D05E2F692F0E94A1001E141F047CF410E0EB
S11314E06501C10ED11C80E00E94F409F6018083DD
S11314F01F5F812F90E08E159F0594F329813A8117
S11315004B815C816D817E818F810E947A00279658
S11315100FB6F894DEBF0FBECDBFDF91CF911F9100
S11315200F91FF90EF90DF90CF90BF90AF90089510
S1071530F894FFCF59
S11315342B002A002900062B002A002900072B006F
S11315442A002900042B002A002900052500240070
S11315542300002B002A0029000325002400230073
S11315640125002400230002250024002300032570
S1131574002400230004250024002300054F646292
S1091584004E616400004A
S9030000FC
